:020000040000FA
:020000001528C1
:040002000034003492
:06002A005520A001A10118
:10003000A201A4010330A30003308600871F2328F8
:10004000071F27281E28871B1E28871F2528071BF8
:100050001E28071F29285220071B0430880007305C
:10006000880034280615382066206D201F150800EA
:100070001F1938281E08A400003003112406031994
:100080004E2870302402031888170815071C3828DA
:1000900008178813031C88130813242822088600D5
:1000A000880186151430A1000800860187018801A7
:1000B000890183160E309F00F0308600FF308700E4
:1000C0003B308800FF3089008312080083160E3011
:1000D0009F00831241309F0008000330A1000800F8
:0200E000702886
:02400E00A23FCF
:02401000BC3FB3
:00000001FF
